{
  "contractName": "CharityTracker",
  "abi": [
    {
      "inputs": [],
      "stateMutability": "nonpayable",
      "type": "constructor"
    },
    {
      "anonymous": false,
      "inputs": [
        {
          "indexed": true,
          "internalType": "address",
          "name": "donor",
          "type": "address"
        },
        {
          "indexed": false,
          "internalType": "string",
          "name": "donorName",
          "type": "string"
        },
        {
          "indexed": false,
          "internalType": "uint256",
          "name": "amount",
          "type": "uint256"
        },
        {
          "indexed": false,
          "internalType": "uint256",
          "name": "timestamp",
          "type": "uint256"
        }
      ],
      "name": "DonationReceived",
      "type": "event"
    },
    {
      "anonymous": false,
      "inputs": [
        {
          "indexed": false,
          "internalType": "string",
          "name": "description",
          "type": "string"
        },
        {
          "indexed": false,
          "internalType": "uint256",
          "name": "amount",
          "type": "uint256"
        },
        {
          "indexed": false,
          "internalType": "uint256",
          "name": "timestamp",
          "type": "uint256"
        }
      ],
      "name": "ExpenseAdded",
      "type": "event"
    },
    {
      "inputs": [
        {
          "internalType": "uint256",
          "name": "",
          "type": "uint256"
        }
      ],
      "name": "donations",
      "outputs": [
        {
          "internalType": "address",
          "name": "donor",
          "type": "address"
        },
        {
          "internalType": "string",
          "name": "donorName",
          "type": "string"
        },
        {
          "internalType": "uint256",
          "name": "amount",
          "type": "uint256"
        },
        {
          "internalType": "uint256",
          "name": "timestamp",
          "type": "uint256"
        }
      ],
      "stateMutability": "view",
      "type": "function",
      "constant": true
    },
    {
      "inputs": [
        {
          "internalType": "uint256",
          "name": "",
          "type": "uint256"
        }
      ],
      "name": "expenses",
      "outputs": [
        {
          "internalType": "string",
          "name": "description",
          "type": "string"
        },
        {
          "internalType": "uint256",
          "name": "amount",
          "type": "uint256"
        },
        {
          "internalType": "uint256",
          "name": "timestamp",
          "type": "uint256"
        }
      ],
      "stateMutability": "view",
      "type": "function",
      "constant": true
    },
    {
      "inputs": [],
      "name": "owner",
      "outputs": [
        {
          "internalType": "address",
          "name": "",
          "type": "address"
        }
      ],
      "stateMutability": "view",
      "type": "function",
      "constant": true
    },
    {
      "inputs": [],
      "name": "totalDonations",
      "outputs": [
        {
          "internalType": "uint256",
          "name": "",
          "type": "uint256"
        }
      ],
      "stateMutability": "view",
      "type": "function",
      "constant": true
    },
    {
      "inputs": [],
      "name": "totalExpenses",
      "outputs": [
        {
          "internalType": "uint256",
          "name": "",
          "type": "uint256"
        }
      ],
      "stateMutability": "view",
      "type": "function",
      "constant": true
    },
    {
      "inputs": [
        {
          "internalType": "string",
          "name": "_donorName",
          "type": "string"
        }
      ],
      "name": "donate",
      "outputs": [],
      "stateMutability": "payable",
      "type": "function",
      "payable": true
    },
    {
      "inputs": [
        {
          "internalType": "string",
          "name": "_description",
          "type": "string"
        },
        {
          "internalType": "uint256",
          "name": "_amount",
          "type": "uint256"
        }
      ],
      "name": "addExpense",
      "outputs": [],
      "stateMutability": "nonpayable",
      "type": "function"
    },
    {
      "inputs": [],
      "name": "getAllDonations",
      "outputs": [
        {
          "components": [
            {
              "internalType": "address",
              "name": "donor",
              "type": "address"
            },
            {
              "internalType": "string",
              "name": "donorName",
              "type": "string"
            },
            {
              "internalType": "uint256",
              "name": "amount",
              "type": "uint256"
            },
            {
              "internalType": "uint256",
              "name": "timestamp",
              "type": "uint256"
            }
          ],
          "internalType": "struct CharityTracker.Donation[]",
          "name": "",
          "type": "tuple[]"
        }
      ],
      "stateMutability": "view",
      "type": "function",
      "constant": true
    },
    {
      "inputs": [],
      "name": "getAllExpenses",
      "outputs": [
        {
          "components": [
            {
              "internalType": "string",
              "name": "description",
              "type": "string"
            },
            {
              "internalType": "uint256",
              "name": "amount",
              "type": "uint256"
            },
            {
              "internalType": "uint256",
              "name": "timestamp",
              "type": "uint256"
            }
          ],
          "internalType": "struct CharityTracker.Expense[]",
          "name": "",
          "type": "tuple[]"
        }
      ],
      "stateMutability": "view",
      "type": "function",
      "constant": true
    },
    {
      "inputs": [],
      "name": "getContractBalance",
      "outputs": [
        {
          "internalType": "uint256",
          "name": "",
          "type": "uint256"
        }
      ],
      "stateMutability": "view",
      "type": "function",
      "constant": true
    }
  ],
  "bytecode": "0x608060405234801561001057600080fd5b50336000806101000a81548173ffffffffffffffffffffffffffffffffffffffff021916908373ffffffffffffffffffffffffffffffffffffffff16021790555061168a806100606000396000f3fe6080604052600436106100915760003560e01c8063af4afe0a11610059578063af4afe0a1461016b578063b5aebc80146101aa578063dd53ff6c146101c6578063de2ed893146101f1578063f8626af81461021c57610091565b806338a59a07146100965780636f9fb98a146100c15780637bd35af8146100ec5780638da5cb5b14610117578063a4df1f5a14610142575b600080fd5b3480156100a257600080fd5b506100ab61025c565b6040516100b89190610c78565b60405180910390f35b3480156100cd57600080fd5b506100d66103b7565b6040516100e39190610ca9565b60405180910390f35b3480156100f857600080fd5b506101016103bf565b60405161010e9190610ca9565b60405180910390f35b34801561012357600080fd5b5061012c6103c5565b6040516101399190610cd3565b60405180910390f35b34801561014e57600080fd5b5061016960048036038101906101649190610e63565b6103e9565b005b34801561017757600080fd5b50610192600480360381019061018d9190610ebf565b61062e565b6040516101a193929190610f36565b60405180910390f35b6101c460048036038101906101bf9190610f74565b6106f0565b005b3480156101d257600080fd5b506101db610876565b6040516101e891906110cf565b60405180910390f35b3480156101fd57600080fd5b5061020661097b565b6040516102139190610ca9565b60405180910390f35b34801561022857600080fd5b50610243600480360381019061023e9190610ebf565b610981565b60405161025394939291906110f1565b60405180910390f35b60606001805480602002602001604051908101604052809291908181526020016000905b828210156103ae57838290600052602060002090600402016040518060800160405290816000820160009054906101000a900473ffffffffffffffffffffffffffffffffffffffff1673ffffffffffffffffffffffffffffffffffffffff1673ffffffffffffffffffffffffffffffffffffffff1681526020016001820180546103099061116c565b80601f01602080910402602001604051908101604052809291908181526020018280546103359061116c565b80156103825780601f1061035757610100808354040283529160200191610382565b820191906000526020600020905b81548152906001019060200180831161036557829003601f168201915b505050505081526020016002820154815260200160038201548152505081526020019060010190610280565b50505050905090565b600047905090565b60045481565b60008054906101000a900473ffffffffffffffffffffffffffffffffffffffff1681565b60008054906101000a900473ffffffffffffffffffffffffffffffffffffffff1673ffffffffffffffffffffffffffffffffffffffff163373ffffffffffffffffffffffffffffffffffffffff1614610477576040517f08c379a000000000000000000000000000000000000000000000000000000000815260040161046e9061120f565b60405180910390fd5b600081116104ba576040517f08c379a00000000000000000000000000000000000000000000000000000000081526004016104b19061127b565b60405180910390fd5b804710156104fd576040517f08c379a00000000000000000000000000000000000000000000000000000000081526004016104f4906112e7565b60405180910390fd5b60026040518060600160405280848152602001838152602001428152509080600181540180825580915050600190039060005260206000209060030201600090919091909150600082015181600001908161055891906114b3565b5060208201518160010155604082015181600201555050806004600082825461058191906115b4565b9250508190555060008054906101000a900473ffffffffffffffffffffffffffffffffffffffff1673ffffffffffffffffffffffffffffffffffffffff166108fc829081150290604051600060405180830381858888f193505050501580156105ee573d6000803e3d6000fd5b507f35fa4a444849d290cb271a90b1ddd7600eebf7e4627f1b7797f1e19a04c50a9682824260405161062293929190610f36565b60405180910390a15050565b6002818154811061063e57600080fd5b90600052602060002090600302016000915090508060000180546106619061116c565b80601f016020809104026020016040519081016040528092919081815260200182805461068d9061116c565b80156106da5780601f106106af576101008083540402835291602001916106da565b820191906000526020600020905b8154815290600101906020018083116106bd57829003601f168201915b5050505050908060010154908060020154905083565b60003411610733576040517f08c379a000000000000000000000000000000000000000000000000000000000815260040161072a90611634565b60405180910390fd5b600160405180608001604052803373ffffffffffffffffffffffffffffffffffffffff16815260200183815260200134815260200142815250908060018154018082558091505060019003906000526020600020906004020160009091909190915060008201518160000160006101000a81548173ffffffffffffffffffffffffffffffffffffffff021916908373ffffffffffffffffffffffffffffffffffffffff16021790555060208201518160010190816107f191906114b3565b5060408201518160020155606082015181600301555050346003600082825461081a91906115b4565b925050819055503373ffffffffffffffffffffffffffffffffffffffff167febdbfdd8b310d67ee2df6ab0914f1adc2e2d0574b0f728ce876e17a2a070cebd82344260405161086b93929190610f36565b60405180910390a250565b60606002805480602002602001604051908101604052809291908181526020016000905b8282101561097257838290600052602060002090600302016040518060600160405290816000820180546108cd9061116c565b80601f01602080910402602001604051908101604052809291908181526020018280546108f99061116c565b80156109465780601f1061091b57610100808354040283529160200191610946565b820191906000526020600020905b81548152906001019060200180831161092957829003601f168201915b50505050508152602001600182015481526020016002820154815250508152602001906001019061089a565b50505050905090565b60035481565b6001818154811061099157600080fd5b90600052602060002090600402016000915090508060000160009054906101000a900473ffffffffffffffffffffffffffffffffffffffff16908060010180546109da9061116c565b80601f0160208091040260200160405190810160405280929190818152602001828054610a069061116c565b8015610a535780601f10610a2857610100808354040283529160200191610a53565b820191906000526020600020905b815481529060010190602001808311610a3657829003601f168201915b5050505050908060020154908060030154905084565b600081519050919050565b600082825260208201905092915050565b6000819050602082019050919050565b600073ffffffffffffffffffffffffffffffffffffffff82169050919050565b6000610ac082610a95565b9050919050565b610ad081610ab5565b82525050565b600081519050919050565b600082825260208201905092915050565b60005b83811015610b10578082015181840152602081019050610af5565b60008484015250505050565b6000601f19601f8301169050919050565b6000610b3882610ad6565b610b428185610ae1565b9350610b52818560208601610af2565b610b5b81610b1c565b840191505092915050565b6000819050919050565b610b7981610b66565b82525050565b6000608083016000830151610b976000860182610ac7565b5060208301518482036020860152610baf8282610b2d565b9150506040830151610bc46040860182610b70565b506060830151610bd76060860182610b70565b508091505092915050565b6000610bee8383610b7f565b905092915050565b6000602082019050919050565b6000610c0e82610a69565b610c188185610a74565b935083602082028501610c2a85610a85565b8060005b85811015610c665784840389528151610c478582610be2565b9450610c5283610bf6565b925060208a01995050600181019050610c2e565b50829750879550505050505092915050565b60006020820190508181036000830152610c928184610c03565b905092915050565b610ca381610b66565b82525050565b6000602082019050610cbe6000830184610c9a565b92915050565b610ccd81610ab5565b82525050565b6000602082019050610ce86000830184610cc4565b92915050565b6000604051905090565b600080fd5b600080fd5b600080fd5b600080fd5b7f4e487b7100000000000000000000000000000000000000000000000000000000600052604160045260246000fd5b610d4482610b1c565b810181811067ffffffffffffffff82111715610d6357610d62610d0c565b5b80604052505050565b6000610d76610cee565b9050610d828282610d3b565b919050565b600067ffffffffffffffff821115610da257610da1610d0c565b5b610dab82610b1c565b9050602081019050919050565b82818337600083830152505050565b6000610dda610dd584610d87565b610d6c565b905082815260208101848484011115610df657610df5610d07565b5b610e01848285610db8565b509392505050565b600082601f830112610e1e57610e1d610d02565b5b8135610e2e848260208601610dc7565b91505092915050565b610e4081610b66565b8114610e4b57600080fd5b50565b600081359050610e5d81610e37565b92915050565b60008060408385031215610e7a57610e79610cf8565b5b600083013567ffffffffffffffff811115610e9857610e97610cfd565b5b610ea485828601610e09565b9250506020610eb585828601610e4e565b9150509250929050565b600060208284031215610ed557610ed4610cf8565b5b6000610ee384828501610e4e565b91505092915050565b600082825260208201905092915050565b6000610f0882610ad6565b610f128185610eec565b9350610f22818560208601610af2565b610f2b81610b1c565b840191505092915050565b60006060820190508181036000830152610f508186610efd565b9050610f5f6020830185610c9a565b610f6c6040830184610c9a565b949350505050565b600060208284031215610f8a57610f89610cf8565b5b600082013567ffffffffffffffff811115610fa857610fa7610cfd565b5b610fb484828501610e09565b91505092915050565b600081519050919050565b600082825260208201905092915050565b6000819050602082019050919050565b600060608301600083015184820360008601526110068282610b2d565b915050602083015161101b6020860182610b70565b50604083015161102e6040860182610b70565b508091505092915050565b60006110458383610fe9565b905092915050565b6000602082019050919050565b600061106582610fbd565b61106f8185610fc8565b93508360208202850161108185610fd9565b8060005b858110156110bd578484038952815161109e8582611039565b94506110a98361104d565b925060208a01995050600181019050611085565b50829750879550505050505092915050565b600060208201905081810360008301526110e9818461105a565b905092915050565b60006080820190506111066000830187610cc4565b81810360208301526111188186610efd565b90506111276040830185610c9a565b6111346060830184610c9a565b95945050505050565b7f4e487b7100000000000000000000000000000000000000000000000000000000600052602260045260246000fd5b6000600282049050600182168061118457607f821691505b6020821081036111975761119661113d565b5b50919050565b7f4f6e6c7920746865206f776e65722063616e20706572666f726d20746869732060008201527f616374696f6e0000000000000000000000000000000000000000000000000000602082015250565b60006111f9602683610eec565b91506112048261119d565b604082019050919050565b60006020820190508181036000830152611228816111ec565b9050919050565b7f457870656e7365206d7573742062652067726561746572207468616e20300000600082015250565b6000611265601e83610eec565b91506112708261122f565b602082019050919050565b6000602082019050818103600083015261129481611258565b9050919050565b7f496e73756666696369656e7420636f6e74726163742062616c616e6365000000600082015250565b60006112d1601d83610eec565b91506112dc8261129b565b602082019050919050565b60006020820190508181036000830152611300816112c4565b9050919050565b60008190508160005260206000209050919050565b60006020601f8301049050919050565b600082821b905092915050565b6000600883026113697fffffffffffffffffffffffffffffffffffffffffffffffffffffffffffffffff8261132c565b611373868361132c565b95508019841693508086168417925050509392505050565b6000819050919050565b60006113b06113ab6113a684610b66565b61138b565b610b66565b9050919050565b6000819050919050565b6113ca83611395565b6113de6113d6826113b7565b848454611339565b825550505050565b600090565b6113f36113e6565b6113fe8184846113c1565b505050565b5b81811015611422576114176000826113eb565b600181019050611404565b5050565b601f8211156114675761143881611307565b6114418461131c565b81016020851015611450578190505b61146461145c8561131c565b830182611403565b50505b505050565b600082821c905092915050565b600061148a6000198460080261146c565b1980831691505092915050565b60006114a38383611479565b9150826002028217905092915050565b6114bc82610ad6565b67ffffffffffffffff8111156114d5576114d4610d0c565b5b6114df825461116c565b6114ea828285611426565b600060209050601f83116001811461151d576000841561150b578287015190505b6115158582611497565b86555061157d565b601f19841661152b86611307565b60005b828110156115535784890151825560018201915060208501945060208101905061152e565b86831015611570578489015161156c601f891682611479565b8355505b6001600288020188555050505b505050505050565b7f4e487b7100000000000000000000000000000000000000000000000000000000600052601160045260246000fd5b60006115bf82610b66565b91506115ca83610b66565b92508282019050808211156115e2576115e1611585565b5b92915050565b7f446f6e6174696f6e206d7573742062652067726561746572207468616e203000600082015250565b600061161e601f83610eec565b9150611629826115e8565b602082019050919050565b6000602082019050818103600083015261164d81611611565b905091905056fea264697066735822122098ea3fa757269d1ac434b3002ca33cbca18be42ce954aefce81b4f0b2e952a4764736f6c63430008130033",
  "immutableReferences": {},
  "source": "// SPDX-License-Identifier: MIT\npragma solidity ^0.8.19;\n\ncontract CharityTracker {\n    address public owner;\n    \n    struct Donation {\n        address donor;\n        string donorName;\n        uint amount;\n        uint timestamp;\n    }\n\n    struct Expense {\n        string description;\n        uint amount;\n        uint timestamp;\n    }\n\n    Donation[] public donations;\n    Expense[] public expenses;\n    \n    uint public totalDonations;\n    uint public totalExpenses;\n\n    event DonationReceived(address indexed donor, string donorName, uint amount, uint timestamp);\n    event ExpenseAdded(string description, uint amount, uint timestamp);\n\n    modifier onlyOwner() {\n        require(msg.sender == owner, \"Only the owner can perform this action\");\n        _;\n    }\n\n    constructor() {\n        owner = msg.sender;\n    }\n\n    function donate(string memory _donorName) external payable {\n        require(msg.value > 0, \"Donation must be greater than 0\");\n\n        donations.push(Donation(msg.sender, _donorName, msg.value, block.timestamp));\n        totalDonations += msg.value;\n\n        emit DonationReceived(msg.sender, _donorName, msg.value, block.timestamp);\n    }\n\n    function addExpense(string memory _description, uint _amount) external onlyOwner {\n        require(_amount > 0, \"Expense must be greater than 0\");\n        require(address(this).balance >= _amount, \"Insufficient contract balance\");\n\n        expenses.push(Expense(_description, _amount, block.timestamp));\n        totalExpenses += _amount;\n\n        payable(owner).transfer(_amount);\n\n        emit ExpenseAdded(_description, _amount, block.timestamp);\n    }\n\n    function getAllDonations() external view returns (Donation[] memory) {\n        return donations;\n    }\n\n    function getAllExpenses() external view returns (Expense[] memory) {\n        return expenses;\n    }\n\n    function getContractBalance() external view returns (uint) {\n        return address(this).balance;\n    }\n}\n",
  "sourcePath": "/Users/thethief/Desktop/charity-tracker/contracts/CharityTracker.sol",
  "compiler": {
    "name": "solc",
    "version": "0.8.19+commit.7dd6d404.Emscripten.clang"
  },
  "schemaVersion": "3.4.16",
  "updatedAt": "2025-02-28T16:51:18.904Z",
  "networkType": "ethereum",
  "devdoc": {
    "kind": "dev",
    "methods": {},
    "version": 1
  },
  "userdoc": {
    "kind": "user",
    "methods": {},
    "version": 1
  }
}